:100000000C94F8050C9400000C9400000C94000073
:100010000C9400000C9400000C9400000C94000060
:100020000C9400000C9400000C94DF050C9400006C
:100030000C9400000C9400000C9400000C94CA0571
:100040000C9400000C9400000C9414060C94000016
:100050000C9400000C9472070C9400000C940000A7
:100060000C9400000C9400000C9400000C94000010
:100070000C9400000C9400000C9400000C94000000
:0C0080000C9400000C9400000C94000094
:100BF000BFEFBDBFB0E1BEBF0E94ED082F923F9294
:100C00005CDF9CDFBAEE2B2EB1E03B2EB1DF009112
:100C1000E8011091E901103009F4023908F097DF7A
:080C2000F6CF3F902F90FFCFAB
:100ABA002F92BFEFBABBB2E0B4BBB0EFB1BB0091AB
:100ACA0095000660009395000AB108690AB9B7B3A0
:100ADA00B061B7BB02B30F7702BB006402BB05B3B8
:100AEA00026005BBB9DCB1E02B2ED4DBBCE02B2EB7
:100AFA00D1DBB0E4B9B9B0E0B093900003B70566B2
:100B0A0003BF0091190110911A0120E0322F0ED073
:100B1A0043E353E363E270E49DDFA6DF01BF05B55B
:0C0B2A00046005BDBFEEB6B92F90089521
:10046200B0913800BF7DB0933800B0913800BB7FA7
:10047200B0933800B0913500BF77B0933500B0919A
:100482003500BF7BB0933500B0913500BF7DB0938E
:100492003500B0913500BF7EB0933500B091370082
:1004A200B062B0933700B0913700B460B0933700B8
:1004B200B0913400B061B0933400B0913400B062B6
:1004C200B0933400B0913400B064B0933400B09172
:1004D2003400B068B093340082DE81DE80DEB091F9
:1004E2003500B062B0933500B0913500B061B09381
:1004F2003500B0913800B062B093380059DEB09147
:100502003800BF7DB09338006ADEB0913800B06227
:10051200B09338004DDEB0913800BF7DB093380003
:100522005EDEB0913800B062B093380041DEB09127
:100532003800BF7DB093380052DEB0913500BF7EE7
:10054200B0933500B0913800B062B093380030DE1D
:10055200B0913800BF7DB093380041DEB0913800D1
:10056200B062B093380024DEB0913800BF7DB09302
:100572003800B0913500BF7DB0933500B0913500A1
:10058200B068B0933500B0913800B062B0933800D3
:100592000FDEB0913800BF7DB093380020DEB091FD
:1005A2003500BF77B0933500B0913500B061B0939C
:1005B2003500B0913800B062B0933800F9DDB091E7
:1005C2003800BF7DB0933800B0913500BF7EB09344
:1005D2003500B0913800B062B0933800E9DDB091D7
:1005E2003800BF7DB0933800FADDB0913800B062B8
:1005F200B0933800DDDDB0913800BF7DB093380094
:10060200B0913500B061B0933500B0913800B0625E
:10061200B0933800CDDDB0913800BF7DB093380083
:10062200DEDDB0913500BF7EB0933500B091380069
:10063200B062B0933800BCDDB0913800BF7DB0939A
:100642003800B0913500B068B0933500B0913500F4
:10065200B064B0933500B0913500B062B09335000C
:10066200B0913500B061B0933500B0913800B062FE
:10067200B09338009DDDB0913800BF7DB093380053
:0E068200AEDDB0911902B160B0931902089577
:0E01E00018E40DE60A95F1F71A95E1F7089577
:0A01B20003E00A95F1F7000008953C
:10029E0027FAB0913500B7F9B093350026FAB09130
:1002AE003500B6F9B093350025FAB0913500B5F9A1
:1002BE00B093350024FAB0913500B4F9B0933500FF
:1002CE00B091190200903800E894B0FF689402F8DB
:1002DE0000923800B0913800B062B093380062DFFF
:1002EE00B0913800BF7DB093380023FAB09135003D
:1002FE00B7F9B093350022FAB0913500B6F9B09344
:10030E00350021FAB0913500B5F9B093350020FAD9
:10031E00B0913500B4F9B0933500B0911902009048
:10032E003800E894B0FF689402F800923800B0915B
:10033E003800B062B093380035DFB0913800BF7D21
:10034E00B0933800B0911902B0FF02C042DF01C075
:04035E0023DF0895FC
:0C01A60006EA0A95F1F700000000089539
:060B360068945BDC0895E9
:1003F00047E16627552726F0332312F426DF60E80D
:04040000F6DE089587
:10024A0000951095209530950F5F1F4F2F4F3F4F08
:02025A00089505
:1001EE00F0DF11F19F938F938EE790E0332351F060
:1001FE00369527951795079548175907B4F44F5F0D
:10020E005F4FF4CF80959095019622239AF0000FC0
:10021E00111F221F481759071CF041505040F5CFAF
:10022E00002711272227332708C033270FEF102F5F
:0C023E002FE7322F8F919F91BADF0895B7
:1001D000002329F4112319F4222309F43323089569
:0001E0001F
:1001BC0009D039F041585F4F342F220F36952795CF
:0401CC00362B089531
:100A5E00042E152E262E372E14DE002E112E222EAB
:040A6E00332E089586
:10069000E5DD81F1E62ED52EC42EB32EA22E912EAD
:1006A000802E002D112D222D332DD8DD19F16E2530
:1006B0004C0D5D1D40385307F4F441387FEF570768
:1006C000FCF088279927AA27BB2770E2B695A79543
:1006D00097958795379527951795079520F4880D59
:1006E000991DAA1DBB1D7A9589F7032F3A2F292F33
:1006F000182F7DDD0AC00FEF102F2FE73FE7FACF4D
:0C0700000027102F202F302FF5CF089578
:10025C00B9DF79F0632F6078220F331F432F5FE7EC
:10026C00451B55275040269530E8232B332798946F
:0A027C0003C04427552766270895A4
:100A7200F4DBF1F05523C2F04F31A8F44731C1F055
:100A820050F44195495E05C0359527951795079510
:100A92004A95D1F70DC04751000F111F221F331F76
:100AA2004A95D1F705C03FE7232F132F032F03C029
:080AB200662309F0C9DB089579
:080B3C00BFB7B068BFBF089508
:100B7000F1010081002369F0F10100813F922F9281
:100B8000202E69DC2F903F9081010F5F1F4F1801CD
:040B9000EFCF089506
:0C0456000BB105FD01C0FCCF2CB80895CF
:100B4E00B0E0B093E801B093E901B7B7BF7BB7BF90
:100B5E00B0E0B4BD05B3026005BBB0E0B0930801D0
:020B6E000895E8
:0A0B440005900D920197E1F7089566
:1011DA00A0E0B1E0ECE8F0E089E191E00E94A2052C
:0211EA00089566
:100EE4000F921F922F923F928F929F92AF92BF9236
:100EF400CF92DF92EF920F931F932F933F934F93D1
:100F04005F936F937F938F939F93AF93BF93EF936D
:100F1400FF93BF93BFB7BF932F923F924F925F92BD
:100F24006F9204B100930301B0E0B093040105B1E2
:100F34000370302F22270091030110910401200F28
:100F4400311F209303013093040100911701109184
:100F540018010217130709F41BC100910301109132
:100F640004010093170110931801009103011091DB
:100F7400040120E0322FDDDD49E354EB68EC7DE32E
:100F84006CDD75DD0093000110930101103009F44C
:100F94000E3128F5B0E0B0930701B0E0B093190129
:100FA400B0931A0100911B01002361F0B7B7BD7F14
:100FB400B7BFB0E0B0930901B8B3BF7EB8BBB0E02F
:100FC400B0931B0100910801002341F007B70F7B88
:100FD40007BFB0E0B4BDB0E0B09308011BC00091FE
:100FE4000001109101010E51104044E650E09CDBD9
:100FF40046E450E01ADA8C010093190110931A01A7
:1010040000911B01002319F407B7026007BFB1E088
:10101400B0931B010091190110911A014FEF50E098
:1010240083DB44E650E001DA8C0101BFBAE04B2EC9
:10103400B1E05B2E20902F0130903001F9DC20903C
:1010440000013090010178DB2801BAE12B2EB2E0D7
:101054003B2EEEDC00912F0110913001045F1F4FF5
:10106400BAE14B2EB2E05B2E1801E2DCBAE12B2E82
:10107400B2E03B2E49DB00937302202F30E0245F63
:101084003F4F00912F0110913001F901E00FF11F42
:10109400B3E4B08300907302B0E01B2E4BE050E049
:1010A4004019510900912F01109130019801235FDB
:1010B4003F4F0091730210E0020F131F542E652E50
:1010C400B0E24B2E18019CD9BCEA4B2EB1E05B2E4A
:1010D4002090050130900601ABDC2090190130907E
:1010E4001A012ADB2801BAE12B2EB2E03B2EA0DC48
:1010F4000091050110910601065F1F4FBAE14B2EC6
:10110400B2E05B2E180194DCBAE12B2EB2E03B2E48
:10111400FBDA00937302BAE12B2EB2E03B2EF4DA31
:101124009801265F3F4F0091050110910601F901D6
:10113400E00FF11FB5E2B08300907302B0E01B2E04
:101144004BE050E04019510900910501109106014E
:101154009801255F3F4F0091730210E0020F131FA7
:10116400542E652EB0E24B2E18014AD94FE750E0B9
:10117400009103011091040158D98C01B02F01E0B2
:10118400BB2319F0000FBA95E9F70150009302014F
:1011940090DB6F905F904F903F902F90BF91BFBFB7
:1011A400BF91FF91EF91BF91AF919F918F917F91EB
:1011B4006F915F914F913F912F911F910F91EF90FC
:1011C400DF90CF90BF90AF909F908F903F902F90E3
:0611D4001F900F9018951A
:100A3400A1019A018A010F5F1F4FA801F2018201EF
:100A44000F5F1F4F28010081F9010083F901008124
:0A0A5400002309F0EECF81010895A0
:10073C00CF93DF93CDB7DEB72497CDBFDEBF219625
:10074C00B0E0B883B0E0B983B0E0BA83B0E0BB836B
:10075C008101B0E03B1611F4B4E62B1619F408E253
:10076C0011E09DC0103009F4003019F400E211E0E2
:10077C0096C0103009F4013019F40EE111E08FC06D
:10078C00103009F4023019F40CE111E088C010307B
:10079C0009F4033019F406E211E081C0103009F4B9
:1007AC00043019F404E211E07AC0103009F4053079
:1007BC0019F402E211E073C0103009F4063019F498
:1007CC0001E311E06CC0103009F4073019F403E3B5
:1007DC0011E065C0103009F4083019F405E311E09C
:1007EC005EC0103009F4093019F40CE211E057C066
:1007FC00B0E03B1611F4B0E02B1659F4FE01B0E357
:10080C00B0838E01F8013196B0E0B0830EE211E0B6
:10081C0046C020E030E0B22DB32949F14AE050E067
:10082C008101FFDD8D01402F4F934AE050E08101A3
:10083C00F8DD8C014F91180109E0041760F48E016A
:10084C00F901E00FF11F042F095C008389010F5F90
:10085C001F4F98010BC08E01F901E00FF11F042FFF
:10086C00005D008389010F5F1F4F9801D4CF8E016B
:10087C00F901E00FF11FB0E0B0831C2F2D2FE12FF9
:10088C00F22F0081302FE12FF22F31960081E12FD2
:10089C00F22F00838E01F801319630838E0123965E
:0A08AC00CDBFDEBFDF91CF910895AC
:10042E00C801BA01AA1BBB1B51E107C0AA1FBB1F03
:10043E00A617B70710F0A61BB70B881F991F5A9562
:08044E00A9F78095909508952F
:10070C009101F90189010F5F1F4F980100810023AE
:10071C0009F0F7CF8901021913090150104008950F
:00072C00CD
:10040400A101252D362D052D162D01501040502EFD
:10041400612EB22FB32B39F0FA0140828A010F5FAB
:0A0424001F4FA801EECF81010895DB
:1008B600CF93DF93CDB7DEB7A097CDBFDEBF21962E
:1008C6002F923F924F925F926F92B0B3B0FF0AC0E1
:1008D60040902F0150903001B1E03B2EB1E02B2E1D
:1008E6003DDD10C08E01B0E15B2EB0E06B2EB0E2B4
:1008F6004B2E180184DD8E012801B1E03B2EB1E0BC
:100906002B2E2CDDB0B3B1FF0AC0409005015090EC
:100916000601B1E03B2EB2E02B2E20DD14C08E0185
:10092600005F1F4FB0E15B2EB0E06B2EB0E24B2EA6
:10093600180165DD8E01005F1F4F2801B1E03B2ED7
:10094600B2E02B2E0BDDB0B3B2FD13C0B0E0B09316
:10095600070100910801002359F0B7B7BF7BB7BF65
:10096600B0E0B4BD05B3026005BBB0E0B0930801CA
:100976001DC0009108010023C9F4209100013091A7
:1009860001010EE110E00217130780F40091070140
:10099600002361F407B7006407BF05B30D7F05BBED
:1009A600B1E0B0930801B1E0B0930701B0B3B3FD75
:1009B60003C0B0E0BBBB03C0009102010BBB6F904C
:1009C6005F904F903F902F906F96CDBFDEBFDF9127
:0409D600CF91089520
:100362002F920FC0B0E82B2E19C0B0EC2B2E16C066
:10037200B4E92B2E13C0B4ED2B2E10C0B0E82B2EF7
:100382000DC0B1E02B1671F3B2E02B1671F3B3E09E
:100392002B1671F3B4E02B1671F3F0CF032D01503D
:1003A200020D202E202E7ADFB0911902BE7FB0936B
:1003B200190210E0E12FF0E0E40DF51D00810023A9
:1003C20079F0E12FF0E0E40DF51D00811F932F92EB
:1003D200202E58DF2F901F91012F0F5F102FEACF91
:0E03E200B0911902B160B09319022F900895E6
:10028600B0911902BE7FB093190206D0B09119023F
:08029600B160B0931902089554
:10072C009801249F8001259F100D349F100D089572
:00073C00BD
:100C28000F921F922F923F924F925F926F920F9363
:100C38001F932F933F934F935F936F937F938F935C
:100C48009F93AF93BF93EF93FF93BF93BFB7BF93A8
:100C5800CF93DF93CDB7DEB72297CDBFDEBF219606
:100C68002F923F924F925F9220E030E00CB10093B8
:100C78007202009172020A3029F0009172020D305E
:100C880009F003C011E020E01EC00091E6011091B8
:100C9800E701153009F40033A0F400917202E091E5
:100CA800E601F091E70100830091E6011091E70168
:100CB8000F5F1F4F0093E6011093E701F801B0E0C2
:100CC800B083122F232F009172020CB9B12FB22BCF
:100CD80009F4E2C0B0E0B093E601B5E0B093E701F3
:100CE800B1E0B0932002B0E0B0932102B7E34B2EFD
:100CF800B1E05B2EB0E02B2EB5E03B2E78DEB02FB6
:100D0800B12B51F5B1E0B0931E02B0E0B0931F02D1
:100D1800BBE84B2EB1E05B2EB2E22B2EB2E03B2EAD
:100D280085DE209000013090010104DD2801BAE140
:100D38002B2EB2E03B2E7ADEB9E92B2EB1E03B2E0A
:100D4800E1DC22E232E0020F131FBAE14B2EB2E0DF
:100D58005B2E18016BDE40C0B7EA4B2EB1E05B2E6C
:100D68002090E6013090E70142DEB02FB12B51F51B
:100D7800B2E0B0931E02B0E0B0931F02B6E54B2E6E
:100D8800B1E05B2EB2E22B2EB2E03B2E4FDE20907C
:100D9800190130901A01CEDC2801BAE12B2EB2E0FD
:100DA8003B2E44DEB2E62B2EB1E03B2EABDC22E23A
:100DB80032E0020F131FBAE14B2EB2E05B2E18018E
:100DC80035DE0AC0BEE62B2EB1E03B2ECDDEB0E00C
:100DD800B0932002B09321020091200210912102C9
:100DE800103009F4013009F049C000911E02109139
:100DF8001F02103009F40130D1F4B9E32B2EB1E011
:100E08003B2E80DC22E232E0020F131F0883198395
:100E1800BAE12B2EB2E03B2E75DC28813981020F16
:100E2800131FB3E54B2EB1E05B2E1801FFDD0091D7
:100E38001E0210911F02103009F40230D1F4B7E4F9
:100E48002B2EB1E03B2E5EDC22E232E0020F131FB4
:100E580008831983BAE12B2EB2E03B2E53DC28819C
:100E68003981020F131FB9EA4B2EB1E05B2E18012E
:100E7800DDDDB2E22B2EB2E03B2E76DEB0E04B2E6B
:100E8800B5E05B2E2090E6013090E701A2DDB7EBDC
:100E98002B2EB1E03B2E68DE5F904F903F902F9055
:100EA8002196CDBFDEBFDF91CF91BF91BFBFBF916C
:100EB800FF91EF91BF91AF919F918F917F916F912A
:100EC8005F914F913F912F911F910F916F905F907C
:0C0ED8004F903F902F901F900F901895A6
:1009F600F1010081002379F0F1011081F2010081FB
:100A0600101749F481010F5F1F4F180182010F5F14
:100A16001F4F2801EDCFF1011081F2010081002E58
:0E0A2600B0E01B2E012F10E0001911090895F9
:1009DA006F925F924F92B0E55B2EB0E06B2E44248B
:0C09EA000CDD4F905F9012016F9008959B
:100B94000F93EF93FF93BF93BFB7BF9300910901E6
:100BA400B1E00B2700FBB8B3B4F9B8BBBF91BFBF2A
:0A0BB400BF91FF91EF910F9118958A
:100BBE000F931F93EF93FF93BF93BFB7BF93009114
:100BCE00E8011091E9010F5F1F4F0093E8011093A8
:100BDE00E901BF91BFBFBF91FF91EF911F910F919F
:020BEE00189558
:02008C00000072
:01008E000071
:02008F0000006F
:0200910020034A
:01009300006C
:01009400006B
:01009500006A
:0D00960054454D50455241545552453A00D5
:0200A30000005B
:0200A500000059
:0100A7000058
:0200A800320024
:0200AA00310023
:0200AC00300022
:0200AE0035001B
:0200B00034001A
:0200B200330019
:0400B40031303000B7
:0200B80039000D
:0100BA000045
:0200BB00000340
:0200BD0036000B
:0200BF00370008
:0200C100380005
:0200C3005400E7
:0E00C50054454D50455241545552453A200085
:0C00D30046414E2053504545443A200061
:0300DF00430D00CE
:0C00E20046414E2053504545443A200052
:0C00EE0046414E2053504545443A200046
:1000FA0057726F6E6720696E70757420656E7465CD
:0D010A007265642C20506C656173652000E7
:0E01170054454D50455241545552453A200032
:0E01250054454D50455241545552453A200024
:02013300530077
:03013500250D0095
:0B01380046414E2053504545443A001C
:10014300456E746572205320666F722025206661A8
:100153006E20737065656420616E64205420666F41
:0F016300722074656D70657261747572653A0013
:02017200000586
:02017400000089
:10017600456E746572205320666F72202520666175
:100186006E20737065656420616E64205420666F0E
:0F019600722074656D70657261747572653A00E0
:00000001FF
